:100000000C942A000C9447000C9447000C94470071
:100010000C9447000C9447000C9447000C94470044
:100020000C9447000C9447000C942E080C94470045
:100030000C9447000C9447000C9447000C94470024
:100040000C9447000C9447000C9447000C94470014
:100050000C94470011241FBECFE5D8E0DEBFCDBF12
:1000600011E0A0E6B0E0E2EEF9E502C005900D92E5
:10007000AA36B107D9F711E0AAE6B1E001C01D9296
:10008000AE39B107E1F70E944D2C0C94EF2C0C9483
:100090002408EF92FF920F931F937B018C0120E0C5
:1000A00030E040E05FE40E94F50388238CF0C80153
:1000B000B70120E030E040E05FE40E94C1010E940F
:1000C00055049B01AC01205030404040504806C0D0
:1000D000C801B7010E9455049B01AC01B901CA01D6
:1000E0001F910F91FF90EF900895A0E0B0E0EBE733
:1000F000F0E00C94B82CDC012B01FA019C919230B9
:1001000008F439C1EB018881823008F433C194309E
:1001100069F4843009F02FC111969C91119789815F
:10012000981709F428C1A7EFB0E025C1843009F47D
:1001300021C18230A9F4923009F01DC19A01AD01AC
:1001400088E0EA010990AE01E90109929E0181501F
:10015000C1F7E201898111969C918923818308C1AD
:10016000923009F407C112962D903C901397EB0141
:100170008A819B811496AD90BD90CD90DC901797AD
:10018000EC80FD800E811F819101281B390BB90184
:1001900037FF04C066277727621B730B6032710537
:1001A0000CF061C0121613066CF537014801062EDB
:1001B00004C096948794779467940A94D2F721E0C8
:1001C00030E040E050E004C0220F331F441F551FB1
:1001D0006A95D2F721503040404050402E213F21B7
:1001E00040235123211531054105510521F021E01E
:1001F00030E040E050E079018A01E628F72808293C
:1002000019293CC0232BD1F1260E371E350146019A
:10021000062E04C096948794779467940A94D2F734
:1002200021E030E040E050E004C0220F331F441FC3
:10023000551F6A95D2F721503040404050402A2146
:100240003B214C215D21211531054105510521F04E
:1002500021E030E040E050E059016A01A628B728CB
:10026000C828D9280BC0821593052CF01C01AA249C
:10027000BB24650103C0EE24FF24870111969C91E5
:10028000D20111968C91981709F445C0992339F041
:10029000A80197012A193B094C095D0906C0A6016E
:1002A00095012E193F09400B510B57FD08C01182D3
:1002B0003382228224833583468357831DC081E0A5
:1002C00081833382228288279927DC01821B930B4A
:1002D000A40BB50B84839583A683B7830DC0220F2F
:1002E000331F441F551F24833583468357838281E0
:1002F000938101979383828324813581468157813D
:10030000DA01C9010197A109B1098F5F9F4FAF4F72
:10031000BF4328F30BC0918333822282EA0CFB1C7B
:100320000C1D1D1DE482F5820683178383E0808304
:10033000248135814681578157FF1AC0C901AA27F8
:1003400097FDA095BA2F81709070A070B0705695EF
:10035000479537952795822B932BA42BB52B848318
:100360009583A683B7838281938101969383828349
:10037000DF0101C0D201CD01CDB7DEB7E2E10C94BF
:10038000D42CA0E2B0E0E7ECF1E00C94C42C69833B
:100390007A838B839C832D833E834F835887E9E048
:1003A000EE2EF12CEC0EFD1ECE010196B7010E943F
:1003B0007E058E010F5E1F4FCE010596B8010E948B
:1003C0007E058A8991E089278A8BC701B801AE0131
:1003D000475E5F4F0E9475000E94A904A096E6E068
:1003E0000C94E02CA0E2B0E0E8EFF1E00C94C42C17
:1003F00069837A838B839C832D833E834F835887C5
:10040000F9E0EF2EF12CEC0EFD1ECE010196B701A6
:100410000E947E058E010F5E1F4FCE010596B8012A
:100420000E947E05C701B801AE01475E5F4F0E9482
:1004300075000E94A904A096E6E00C94E02CA0E2CE
:10044000B0E0E5E2F2E00C94B82C69837A838B8308
:100450009C832D833E834F835887CE010196BE0136
:10046000675F7F4F0E947E05CE010596BE016F5EDD
:100470007F4F0E947E059985923088F0898982306D
:10048000C8F0943019F4823051F404C0843029F457
:10049000923081F487EF90E0C6C0923049F420E0BA
:1004A0009A858A89981321E02A87CE010996BBC0D4
:1004B000823049F420E09A858A89981321E02A8BBA
:1004C000CE014196B0C02D843E844F8458886D88FB
:1004D0007E888F88988CEE24FF248701AA24BB2471
:1004E000650140E050E060E070E0E0E0F0E0C10174
:1004F00081709070892BE9F0E60CF71C081D191D1E
:100500009A01AB012A0D3B1D4C1D5D1D80E090E062
:10051000A0E0B0E0E614F7040805190520F481E036
:1005200090E0A0E0B0E0BA01A901480F591F6A1F8E
:100530007B1FAA0CBB1CCC1CDD1C97FE08C081E0F5
:1005400090E0A0E0B0E0A82AB92ACA2ADB2A3196B6
:10055000E032F10549F0660C771C881C991C569412
:10056000479437942794C3CFFA85EA892B893C892D
:100570008B859C85280F391F2E5F3F4F17C0CA01FE
:1005800081709070892B61F016950795F794E79428
:1005900080E090E0A0E0B0E8E82AF92A0A2B1B2BC3
:1005A00076956795579547952F5F3F4F77FDE7CF36
:1005B0000CC0440F551F661F771F17FD4160EE0CDE
:1005C000FF1C001F111F21503040403090E05907A0
:1005D00090E0690790E4790760F32B8F3C8FDB0193
:1005E000CA018F779070A070B07080349105A1051A
:1005F000B10561F447FD0AC0E114F10401051105DC
:1006000029F0405C5F4F6F4F7F4F40781A8EFE1786
:1006100011F081E08A8F4D8F5E8F6F8F78A383E01A
:10062000898FCE0149960E94A904A096E2E10C941C
:10063000D42CA8E1B0E0EFE1F3E00C94C02C698386
:100640007A838B839C832D833E834F835887B9E0C5
:10065000EB2EF12CEC0EFD1ECE010196B7010E948F
:100660007E058E010F5E1F4FCE010596B8010E94D8
:100670007E052985223008F47EC03989323010F495
:10068000B8017CC08A859A8989278A87243011F02D
:10069000223031F4231709F06EC067EF70E06EC0AE
:1006A000343039F41D861E861F86188A1C861B86E8
:1006B00004C0323021F484E08987B7015FC02B8504
:1006C0003C858B899C89281B390B3C872B87ED84C3
:1006D000FE840F851889AD88BE88CF88D88CEA142F
:1006E000FB040C051D0540F4EE0CFF1C001F111F40
:1006F000215030403C872B8720E030E040E050E044
:1007000080E090E0A0E0B0E460E070E0EA14FB0478
:100710000C051D0540F0282B392B4A2B5B2BEA18C2
:10072000FB080C091D09B695A79597958795EE0CC2
:10073000FF1C001F111F6F5F7F4F6F31710531F775
:10074000DA01C9018F779070A070B0708034910584
:10075000A105B10561F427FD0AC0E114F10401050A
:10076000110529F0205C3F4F4F4F5F4F20782D87B8
:100770003E874F87588BBE01675F7F4FCB010E943A
:10078000A9046896EAE00C94DC2CA8E1B0E0EBEC5C
:10079000F3E00C94C42C69837A838B839C832D8330
:1007A0003E834F83588789E0E82EF12CEC0EFD1E26
:1007B000CE010196B7010E947E058E010F5E1F4F8C
:1007C000CE010596B8010E947E058985823040F0F1
:1007D0008989823028F0C701B8010E94F60501C05E
:1007E0008FEF6896E6E00C94E02CA8E1B0E0EBEF28
:1007F000F3E00C94C42C69837A838B839C832D83D0
:100800003E834F83588789E0E82EF12CEC0EFD1EC5
:10081000CE010196B7010E947E058E010F5E1F4F2B
:10082000CE010596B8010E947E058985823040F090
:100830008989823028F0C701B8010E94F60501C0FD
:100840008FEF6896E6E00C94E02CA8E1B0E0EBE2D4
:10085000F4E00C94C42C69837A838B839C832D836E
:100860003E834F83588789E0E82EF12CEC0EFD1E65
:10087000CE010196B7010E947E058E010F5E1F4FCB
:10088000CE010596B8010E947E058985823040F030
:100890008989823028F0C701B8010E94F60501C09D
:1008A00081E06896E6E00C94E02CACE0B0E0EBE58B
:1008B000F4E00C94C82C69837A838B839C83CE01EB
:1008C0000196BE016B5F7F4F0E947E058D81823055
:1008D00061F1823050F1843021F48E81882351F10E
:1008E0002EC02F81388537FD20C06E812F31310514
:1008F0001CF06623F9F023C08EE190E0821B930B7D
:1009000029853A854B855C8504C056954795379572
:1009100027958A95D2F76623B1F05095409530958A
:1009200021953F4F4F4F5F4F0EC020E030E040E039
:1009300050E009C02FEF3FEF4FEF5FE704C020E02A
:1009400030E040E050E8B901CA012C96E2E00C9496
:10095000E42CDF92EF92FF920F931F93FC01E4804F
:10096000F58006811781D1808081823048F480E053
:1009700090E0A0E1B0E0E82AF92A0A2B1B2BA5C0E1
:10098000843009F49FC0823021F4EE24FF248701D3
:1009900005C0E114F1040105110519F4E0E0F0E0EF
:1009A00096C0628173819FEF623879070CF05BC05B
:1009B00022E83FEF261B370B2A3131052CF020E0CF
:1009C00030E040E050E02AC0B801A701022E04C088
:1009D00076956795579547950A94D2F781E090E010
:1009E000A0E0B0E004C0880F991FAA1FBB1F2A9582
:1009F000D2F70197A109B1098E219F21A023B1232C
:100A00000097A105B10521F081E090E0A0E0B0E001
:100A10009A01AB01282B392B4A2B5B2BDA01C90138
:100A20008F779070A070B07080349105A105B105EA
:100A300039F427FF09C0205C3F4F4F4F5F4F04C080
:100A4000215C3F4F4F4F5F4FE0E0F0E02030A0E0EF
:100A50003A07A0E04A07A0E45A0710F0E1E0F0E00E
:100A600079018A0127C06038710564F5FB01E158FE
:100A7000FF4FD801C7018F779070A070B07080349D
:100A80009105A105B10539F4E7FE0DC080E490E0C1
:100A9000A0E0B0E004C08FE390E0A0E0B0E0E80E9A
:100AA000F91E0A1F1B1F17FF05C016950795F7941F
:100AB000E794319687E016950795F794E7948A9521
:100AC000D1F705C0EE24FF248701EFEFF0E06E2F91
:100AD000679566276795902F9F77D794DD24D794E5
:100AE0008E2F8695492F462B582F5D29B701CA01B5
:100AF0001F910F91FF90EF90DF900895FC01DB01B3
:100B0000408151812281622F6F7770E0221F22275E
:100B1000221F9381892F880F822B282F30E0991F65
:100B20009927991F11969C93119721153105A9F5C5
:100B3000411551056105710511F482E037C082E865
:100B40009FEF13969C938E9312979A01AB0167E0E7
:100B5000220F331F441F551F6A95D1F783E08C93F2
:100B60000DC0220F331F441F551F12968D919C916B
:100B70001397019713969C938E931297203080E0E1
:100B8000380780E0480780E4580758F314962D93FF
:100B90003D934D935C93179708952F3F310579F45A
:100BA000411551056105710519F484E08C93089590
:100BB00064FF03C081E08C9312C01C9210C02F57B9
:100BC000304013963C932E93129783E08C9387E0EA
:100BD000440F551F661F771F8A95D1F770641496CE
:100BE0004D935D936D937C93179708951F93DC014C
:100BF000FB019C91923008F447C08081823008F458
:100C000043C0943051F411961C91843099F5818140
:100C1000682F70E0611B71093FC0843021F0923071
:100C200031F48230B9F18181882389F12DC0119688
:100C30001C9111978230F1F081811817D9F4129626
:100C40002D913C911397828193818217930794F0A1
:100C500028173907BCF014968D919D910D90BC9189
:100C6000A02D2481358146815781281739074A07ED
:100C70005B0718F4112341F00AC082179307A407F9
:100C8000B50740F4112319F061E070E005C06FEF83
:100C90007FEF02C060E070E0CB011F910895DF9309
:100CA000CF9300D00F92CDB7DEB780E69AEE9A834D
:100CB000898305C089819A8101979A838983E6E5B2
:100CC000F0E08081882324F089819A81009791F750
:100CD00089819A81009719F081E08B8301C01B8282
:100CE0008B810F900F900F90CF91DF9108950F930C
:100CF0001F93DF93CF9300D000D0CDB7DEB76983C9
:100D00007A838B839C83A4E3B0E0E4E3F0E080810A
:100D10008E7F8C93A4E3B0E0E4E3F0E080818D7FEC
:100D20008C93A5E3B0E0E5E3F0E0808181608C93F3
:100D3000A5E3B0E0E5E3F0E0808182608C93A1E27E
:100D4000B0E0E1E2F0E080818D7F8C93A1E2B0E041
:100D5000E1E2F0E080818E7F8C9300E210E080E0A1
:100D600092E1AAE7B0E029813A814B815C81BC0124
:100D7000CD010E94962CDA01C9014097A109B10961
:100D8000B695A79597958795F8018083A6E5B0E07D
:100D9000E6E5F0E0808184608C930F900F900F90D7
:100DA0000F90CF91DF911F910F910895DF93CF9313
:100DB00000D0CDB7DEB78983E6E5F0E084EA808332
:100DC0000E944F06882321F40E943B071A824DC0DF
:100DD000E1E2F0E08081882F90E0887F9070883099
:100DE000910571F0E1E2F0E08081882F90E0887F4A
:100DF00090708031910521F00E943B071A8235C026
:100E0000E3E2F0E089818083E6E5F0E084E8808336
:100E10000E944F06882321F40E943B071A8225C0B6
:100E20008981882F90E081709070009771F4E1E2E1
:100E3000F0E08081882F90E0887F90708831910564
:100E400091F00E943B071A8210C0E1E2F0E080813D
:100E5000882F90E0887F90708034910521F00E9467
:100E60003B071A8202C081E08A838A810F900F902B
:100E7000CF91DF910895DF93CF93CDB7DEB7E6E54D
:100E8000F0E084E98083CF91DF910895DF93CF93E1
:100E900000D00F92CDB7DEB78983E3E2F0E089811D
:100EA0008083E6E5F0E084E880830E944F06882393
:100EB00011F41B8210C0E1E2F0E08081882F90E005
:100EC000887F90708832910519F481E08A8301C08F
:100ED0001A828A818B838B810F900F900F90CF9114
:100EE000DF910895DF93CF9300D000D0CDB7DEB768
:100EF0009A838983E6E5F0E084EC80830E944F06C4
:100F0000882311F41C8216C0E3E2F0E08081E981BD
:100F1000FA818083E1E2F0E08081882F90E0887F91
:100F200090708035910519F481E08B8301C01B829C
:100F30008B818C838C810F900F900F900F90CF91AD
:100F4000DF910895DF93CF9300D000D0CDB7DEB707
:100F50009A838983E6E5F0E084E880830E944F0667
:100F6000882311F41C8216C0E3E2F0E08081E9815D
:100F7000FA818083E1E2F0E08081882F90E0887F31
:100F800090708835910519F481E08B8301C01B8234
:100F90008B818C838C810F900F900F900F90CF914D
:100FA000DF910895DF93CF93CDB7DEB7E8E5F0E0AA
:100FB00082E08083E9E5F0E01082E3E5F0E0108272
:100FC000A3E5B0E0E3E5F0E0808188608C93A3E5E1
:100FD000B0E0E3E5F0E0808182608C93A3E5B0E0CF
:100FE000E3E5F0E0808181608C93ECE5F0E08CE754
:100FF0008083A9E5B0E0E9E5F0E0808182608C9330
:10100000CF91DF910895DF93CF9300D000D0CDB77B
:10101000DEB7F89480916A0190916B01A0916C0108
:10102000B0916D0189839A83AB83BC837894898165
:101030009A81AB81BC81BC01CD010F900F900F90C4
:101040000F90CF91DF9108951F920F920FB60F92DC
:101050001124DF93CF93CDB7DEB7FFCF1F920F924E
:101060000FB60F9211248F939F93AF93BF93DF938B
:10107000CF93CDB7DEB780916A0190916B01A091BB
:101080006C01B0916D010196A11DB11D80936A01A3
:1010900090936B01A0936C01B0936D01CF91DF91A0
:1010A000BF91AF919F918F910F900FBE0F901F90A6
:1010B0001895DF93CF9300D000D00F92CDB7DEB755
:1010C00089838981282F30E03D832C838C819D8109
:1010D00081309105D1F02C813D81223031052CF4F5
:1010E0008C819D81009761F01FC02C813D81223051
:1010F000310581F08C819D818330910581F014C090
:101100002AE330E03B832A8313C087E390E09B838C
:101110008A830EC024E330E03B832A8309C081E345
:1011200090E09B838A8304C02AE330E03B832A83D8
:101130008A819B810F900F900F900F900F90CF910D
:10114000DF910895DF93CF9300D000D00F92CDB7F9
:10115000DEB789838981282F30E03D832C838C8101
:101160009D8181309105D1F02C813D812230310566
:101170002CF48C819D81009761F01FC02C813D81F2
:101180002230310581F08C819D818330910581F081
:1011900014C02BE330E03B832A8313C088E390E044
:1011A0009B838A830EC025E330E03B832A8309C0FA
:1011B00082E390E09B838A8304C02BE330E03B838F
:1011C0002A838A819B810F900F900F900F900F9030
:1011D000CF91DF910895DF93CF9300D000D00F928D
:1011E000CDB7DEB789838981282F30E03D832C83FA
:1011F0008C819D8181309105D1F02C813D812230FF
:1012000031052CF48C819D81009761F01FC02C81E9
:101210003D812230310581F08C819D8183309105A3
:1012200081F014C029E330E03B832A8313C086E3B6
:1012300090E09B838A830EC023E330E03B832A83C4
:1012400009C080E390E09B838A8304C029E330E0F7
:101250003B832A838A819B810F900F900F900F9080
:101260000F90CF91DF910895DF93CF9300D00F922D
:10127000CDB7DEB789836A834B838B81882399F04E
:1012800089810E945908FC0140818A81282F30E021
:1012900081E090E0022E02C0880F991F0A94E2F7C5
:1012A000842B808313C089810E945908FC014081EE
:1012B0008A81282F30E081E090E0022E02C0880F62
:1012C000991F0A94E2F78095842380830F900F90F2
:1012D0000F90CF91DF910895DF93CF9300D00F92BD
:1012E000CDB7DEB789836A834B838B81882399F0DE
:1012F00089810E94A208FC0140818A81282F30E068
:1013000081E090E0022E02C0880F991F0A94E2F754
:10131000842B808313C089810E94A208FC01408134
:101320008A81282F30E081E090E0022E02C0880FF1
:10133000991F0A94E2F78095842380830F900F9081
:101340000F90CF91DF910895DF93CF9300D000D01D
:10135000CDB7DEB789836A835C834B8389810E9422
:10136000EB08FC018081282F30E08A81882F90E0F3
:10137000A90102C0559547958A95E2F7CA01817087
:10138000EB81FC8180830F900F900F900F90CF9195
:10139000DF910895DF93CF9300D0CDB7DEB7898377
:1013A0006A8389810E94A208FC0140818A81282FDA
:1013B00030E081E090E0022E02C0880F991F0A946D
:1013C000E2F7842780830F900F90CF91DF910895EB
:1013D000DF93CF9300D0CDB7DEB789836A8389814D
:1013E0000E94A208FC0140818A81282F30E081E020
:1013F00090E0022E02C0880F991F0A94E2F7842B16
:1014000080830F900F90CF91DF910895DF93CF935A
:1014100000D0CDB7DEB789836A8389810E945908DD
:10142000FC018A8180830F900F90CF91DF91089506
:10143000DF93CF9300D0CDB7DEB789836A838981EC
:101440000E94A208FC018A8180830F900F90CF91A7
:10145000DF910895DF93CF9300D00F92CDB7DEB721
:1014600089837B836A8389810E94EB08FC018081E8
:10147000EA81FB8180830F900F900F90CF91DF91D5
:1014800008950F931F93DF93CF930F92CDB7DEB7DD
:10149000898389810E94A2088C0189810E94A20807
:1014A000FC0180818095F80180830F90CF91DF91BE
:1014B0001F910F910895DF93CF930F92CDB7DEB7B1
:1014C0008983898182958F70882F90E09C01220FFB
:1014D000331FC901880F991F880F991F820F931F0F
:1014E000982F89818F70890F0F90CF91DF91089588
:1014F000DF93CF930F92CDB7DEB7898389819AE0CE
:10150000692F0E94762C282F2295207F89819AE0CE
:10151000692F0E94762C892F822B0F90CF91DF911B
:101520000895DF93CF93CDB7DEB760EA76E881E028
:1015300090E00E947706CF91DF910895DF93CF93DB
:10154000CDB7DEB72F970FB6F894DEBF0FBECDBF75
:101550009C878B8780ED0E94D606882311F41F8616
:10156000A1C080E00E944607882321F40E943B0727
:101570001F8698C081ED0E94D606882321F40E9420
:101580003B071F868FC01B8212C08B81282F30E043
:10159000CE010496820F931F0E947207882321F4C4
:1015A0000E943B071F867EC08B818F5F8B838B8160
:1015B000863058F3CE01049606960E94A20788232F
:1015C00021F40E943B071F866DC00E943B078C815F
:1015D0008F770E945B0AEB85FC8580838D818F77F6
:1015E0000E945B0AEB85FC8581838E81882F90E0C9
:1015F00080749070009769F18E818F710E945B0AF0
:101600008A838E81882F90E0807290701982009773
:1016100011F081E089838A818C3061F4898188238B
:1016200019F08CE08E8701C01E86EB85FC859E85B7
:10163000928316C08981882329F08A81982F945F2C
:101640009D8702C08A818D87EB85FC859D8592836D
:1016500007C08E818F730E945B0AEB85FC858283B5
:101660008F8187700E945B0AEB85FC858383888568
:101670008F730E945B0AEB85FC85848389858F715B
:101680000E945B0AEB85FC8585838A850E945B0A44
:10169000882F90E08053984FEB85FC859783868355
:1016A00081E08F878F852F960FB6F894DEBF0FBE2F
:1016B000CDBFCF91DF910895DF93CF9300D00F92EC
:1016C000CDB7DEB79A83898380ED0E94D606882342
:1016D00011F41B8274C080E00E944607882321F425
:1016E0000E943B071B826BC0E981FA8180810E94C6
:1016F000780A8F770E944607882321F40E943B07CF
:101700001B825DC0E981FA8181810E94780A8F770E
:101710000E944607882321F40E943B071B824FC08A
:10172000E981FA8182810E94780A8F730E944607BC
:10173000882321F40E943B071B8241C0E981FA8182
:1017400083810E94780A87700E944607882321F4CB
:101750000E943B071B8233C0E981FA8184810E9489
:10176000780A8F730E944607882321F40E943B0762
:101770001B8225C0E981FA8185810E94780A8F71D8
:101780000E944607882321F40E943B071B8217C052
:10179000E981FA818681978124E630E0B9010E94CF
:1017A000822C0E94780A0E944607882321F40E9416
:1017B0003B071B8204C00E943B0781E08B838B8127
:1017C0000F900F900F90CF91DF910895DF93CF93FB
:1017D00000D000D00F92CDB7DEB79B838A8380ED17
:1017E0000E94D606882311F41D822BC08FE00E9430
:1017F0004607882321F40E943B071D8222C081ED09
:101800000E94D606882321F40E943B071D8219C03E
:10181000CE0101960E94A207882321F40E943B0773
:101820001D820FC00E943B07898188231CF481E040
:101830008C8301C01C82EA81FB818C81808381E0E2
:101840008D838D810F900F900F900F900F90CF91FF
:10185000DF910895DF93CF9300D0CDB7DEB780ED51
:101860000E94D606882311F41A823EC08FE00E949F
:101870004607882321F40E943B071A8235C081ED78
:101880000E94D606882321F40E943B071A822CC0AE
:10189000CE0101960E94A207882321F40E943B07F3
:1018A0001A8222C00E943B0789818F77898380ED4D
:1018B0000E94D606882311F41A8216C08FE00E9477
:1018C0004607882321F40E943B071A820DC08981B4
:1018D0000E944607882321F40E943B071A8204C015
:1018E0000E943B0781E08A838A810F900F90CF91FD
:1018F000DF910895DF93CF930F92CDB7DEB7EFE579
:10190000F0E080818983F894A4E5B0E0E4E5F0E0BC
:10191000808180688C93A4E5B0E0E4E5F0E080810C
:1019200080688C93EFE5F0E0898180830F90CF9100
:10193000DF910895DF93CF93CDB7DEB7E0970FB671
:10194000F894DEBF0FBECDBF80E062E041E00E94B0
:101950006C0980E090E0A0E8BFE38DA79EA7AFA749
:10196000B8AB6DA57EA58FA598A92BEA3AEA4AE205
:1019700050E40E941F02DC01CB0189A79AA7ABA704
:10198000BCA769A57AA58BA59CA520E030E040E81E
:101990005FE30E94250488231CF481E088A791C09E
:1019A00069A57AA58BA59CA520E030E04FE753E41C
:1019B0000E94C50318160CF07BC06DA57EA58FA5EF
:1019C00098A920E030E04AE754E40E941903DC01C2
:1019D000CB018CA39DA3AEA3BFA36CA17DA18EA1BF
:1019E0009FA120E030E04AEF54E40E941F02DC0196
:1019F000CB0188A399A3AAA3BBA368A179A18AA1BB
:101A00009BA120E030E040E85FE30E9425048823AA
:101A10002CF481E090E09F8F8E8F3FC068A179A168
:101A20008AA19BA120E03FEF4FE757E40E94C50346
:101A300018164CF56CA17DA18EA19FA120E030E08D
:101A400040E251E40E941F02DC01CB01BC01CD0148
:101A50000E944900DC01CB019F8F8E8F0FC088EC64
:101A600090E09D8F8C8F8C8D9D8D0197F1F79D8FD0
:101A70008C8F8E8D9F8D01979F8F8E8F8E8D9F8DDA
:101A8000009769F724C068A179A18AA19BA10E944F
:101A90004900DC01CB019F8F8E8F8E8D9F8D9B8F98
:101AA0008A8F8A8D9B8D0197F1F79B8F8A8F0FC04C
:101AB00069A57AA58BA59CA50E944900DC01CB01F4
:101AC00088A788A5898F898D8A95F1F7898F80E00D
:101AD00062E040E00E946C0980E090E0A8ECB2E493
:101AE0008D8B9E8BAF8BB88F6D897E898F89988DFA
:101AF0002BEA3AEA4AE250E40E941F02DC01CB01E1
:101B0000898B9A8BAB8BBC8B69897A898B899C89F1
:101B100020E030E040E85FE30E94250488231CF4C5
:101B200081E0888B91C069897A898B899C8920E0C2
:101B300030E04FE753E40E94C50318160CF07BC059
:101B40006D897E898F89988D20E030E04AE754E4E2
:101B50000E941903DC01CB018C879D87AE87BF876C
:101B60006C857D858E859F8520E030E04AEF54E4CA
:101B70000E941F02DC01CB0188879987AA87BB8757
:101B8000688579858A859B8520E030E040E85FE3C1
:101B90000E94250488232CF481E090E09F838E83AB
:101BA0003FC0688579858A859B8520E03FEF4FE7B8
:101BB00057E40E94C50318164CF56C857D858E850B
:101BC0009F8520E030E040E251E40E941F02DC01EA
:101BD000CB01BC01CD010E944900DC01CB019F83F8
:101BE0008E830FC088EC90E09D838C838C819D81D7
:101BF0000197F1F79D838C838E819F8101979F834D
:101C00008E838E819F81009769F724C068857985CE
:101C10008A859B850E944900DC01CB019F838E83CE
:101C20008E819F819B838A838A819B810197F1F7B3
:101C30009B838A830FC069897A898B899C890E94DA
:101C40004900DC01CB01888B8889898389818A9549
:101C5000F1F78983E0960FB6F894DEBF0FBECDBFD3
:101C6000CF91DF910895DF93CF930F92CDB7DEB779
:101C700089838981982F917082E067E0492F0E94C3
:101C80006C0989818695982F917082E066E0492FD2
:101C90000E946C09898186958695982F917082E0C3
:101CA00065E0492F0E946C09898186958695869505
:101CB000982F917082E064E0492F0E946C090E9485
:101CC0009A0C0F90CF91DF910895DF93CF93CDB70A
:101CD000DEB72F970FB6F894DEBF0FBECDBF8F874C
:101CE00080E060E040E00E946C0980E061E040E05C
:101CF0000E946C098F8582958F700E94330E8F85AC
:101D00008F700E94330E8F85813021F08F85823055
:101D100009F072C080E090E0A0E0B0E48B879C877F
:101D2000AD87BE876B857C858D859E8520E030E004
:101D30004AEF54E40E941F02DC01CB018F83988795
:101D4000A987BA876F81788589859A8520E030E0F8
:101D500040E85FE30E94250488232CF481E090E0B2
:101D60009E838D833FC06F81788589859A8520E029
:101D70003FEF4FE757E40E94C50318164CF56B85FB
:101D80007C858D859E8520E030E040E251E40E9414
:101D90001F02DC01CB01BC01CD010E944900DC0126
:101DA000CB019E838D830FC088EC90E09C838B8356
:101DB0008B819C810197F1F79C838B838D819E8120
:101DC00001979E838D838D819E81009769F714C052
:101DD0006F81788589859A850E944900DC01CB0155
:101DE0009E838D838D819E819A83898389819A8147
:101DF0000197F1F79A8389832F960FB6F894DEBF87
:101E00000FBECDBFCF91DF910895DF93CF930F9297
:101E1000CDB7DEB7898380E060E041E00E946C09C5
:101E200080E061E040E00E946C09898182958F70BA
:101E30000E94330E89818F700E94330E0F90CF91D4
:101E4000DF910895DF93CF9300D0CDB7DEB79A83AB
:101E500089830AC0E981FA8180810E94050F898106
:101E60009A8101969A838983E981FA818081882306
:101E700089F70F900F90CF91DF910895DF93CF9363
:101E800000D000D0CDB7DEB78A836B838A818823E8
:101E900019F480E88C8302C080EC8C838C81898368
:101EA00089819B81890F898389810E94650E0F90AA
:101EB0000F900F900F90CF91DF910895DF93CF9304
:101EC00000D000D0CDB7DEB789836A835C834B83B3
:101ED00089816A810E943E0F8B819C810E94220F22
:101EE0000F900F900F900F90CF91DF910895DF9397
:101EF000CF93CDB7DEB781E00E94650ECF91DF9121
:101F00000895DF93CF93CDB7DEB782E00E94650ED0
:101F1000CF91DF9108950F931F93DF93CF93CDB7A8
:101F2000DEB7CC54D0400FB6F894DEBF0FBECDBFA5
:101F30000E947A0C80E060E041E00E94340980E079
:101F400061E041E00E94340980E062E041E00E94EB
:101F5000340982E060EF0E94060A80E060E040E021
:101F60000E946C0980E061E040E00E946C0980E022
:101F700062E040E00E946C09FE01E75BFF4F80E0F9
:101F800090E0A0E2B2E480839183A283B3838E01C8
:101F90000B5B1F4FFE01E75BFF4F60817181828108
:101FA000938120E030E04AEF54E40E941F02DC01FC
:101FB000CB01F80180839183A283B383FE01EB5BA5
:101FC000FF4F608171818281938120E030E040E8A1
:101FD0005FE30E942504882344F4FE01ED5BFF4F7C
:101FE00081E090E09183808364C0FE01EB5BFF4F52
:101FF000608171818281938120E03FEF4FE757E458
:102000000E94C50318160CF043C0FE01E75BFF4FAA
:10201000608171818281938120E030E040E251E46F
:102020000E941F02DC01CB018E010D5B1F4FBC0122
:10203000CD010E944900DC01CB01F801918380832E
:102040001FC0FE01EF5BFF4F88EC90E0918380831F
:10205000FE01EF5BFF4F808191810197F1F7FE0157
:10206000EF5BFF4F91838083DE01AD5BBF4FFE01CD
:10207000ED5BFF4F80819181019711969C938E9328
:10208000FE01ED5BFF4F808191810097D1F624C066
:102090008E010D5B1F4FFE01EB5BFF4F6081718175
:1020A000828193810E944900DC01CB01F801918378
:1020B0008083FE01ED5BFF4F80819181FE01FF96E1
:1020C00091838083FE01FF96808191810197F1F7D2
:1020D000FE01FF969183808383E00E94330E80E0AF
:1020E00090E0A0EAB0E48BAF9CAFADAFBEAF6BADFC
:1020F0007CAD8DAD9EAD20E030E04AEF54E40E940F
:102100001F02DC01CB018FAB98AFA9AFBAAF6FA9AB
:1021100078AD89AD9AAD20E030E040E85FE30E9401
:10212000250488232CF481E090E09EAB8DAB3FC06A
:102130006FA978AD89AD9AAD20E03FEF4FE757E446
:102140000E94C50318164CF56BAD7CAD8DAD9EADF0
:1021500020E030E040E251E40E941F02DC01CB01AC
:10216000BC01CD010E944900DC01CB019EAB8DABCF
:102170000FC088EC90E09CAB8BAB8BA99CA901971E
:10218000F1F79CAB8BAB8DA99EA901979EAB8DAB54
:102190008DA99EA9009769F714C06FA978AD89AD84
:1021A0009AAD0E944900DC01CB019EAB8DAB8DA99D
:1021B0009EA99AAB89AB89A99AA90197F1F79AAB25
:1021C00089AB83E00E94330E80E090E0A6E1B3E4A7
:1021D0008DA79EA7AFA7B8AB6DA57EA58FA598A923
:1021E0002BEA3AEA4AE250E40E941F02DC01CB01EA
:1021F00089A79AA7ABA7BCA769A57AA58BA59CA51B
:1022000020E030E040E85FE30E94250488231CF4CE
:1022100081E088A791C069A57AA58BA59CA520E03F
:1022200030E04FE753E40E94C50318160CF07BC062
:102230006DA57EA58FA598A920E030E04AE754E47B
:102240000E941903DC01CB018CA39DA3AEA3BFA305
:102250006CA17DA18EA19FA120E030E04AEF54E463
:102260000E941F02DC01CB0188A399A3AAA3BBA3F0
:1022700068A179A18AA19BA120E030E040E85FE35A
:102280000E94250488232CF481E090E09F8F8E8F9C
:102290003FC068A179A18AA19BA120E03FEF4FE751
:1022A00057E40E94C50318164CF56CA17DA18EA1C0
:1022B0009FA120E030E040E251E40E941F02DC01D7
:1022C000CB01BC01CD010E944900DC01CB019F8FF5
:1022D0008E8F0FC088EC90E09D8F8C8F8C8D9D8DA4
:1022E0000197F1F79D8F8C8F8E8D9F8D01979F8F1A
:1022F0008E8F8E8D9F8D009769F724C068A179A17C
:102300008AA19BA10E944900DC01CB019F8F8E8F87
:102310008E8D9F8D9B8F8A8F8A8D9B8D0197F1F774
:102320009B8F8A8F0FC069A57AA58BA59CA50E945B
:102330004900DC01CB0188A788A5898F898D8A9502
:10234000F1F7898F83E00E94330E80E090E0A6E1F0
:10235000B3E48D8B9E8BAF8BB88F6D897E898F890F
:10236000988D2BEA3AEA4AE250E40E941F02DC010F
:10237000CB01898B9A8BAB8BBC8B69897A898B89D2
:102380009C8920E030E040E85FE30E942504882338
:102390001CF481E0888B91C069897A898B899C893A
:1023A00020E030E04FE753E40E94C50318160CF01C
:1023B0007BC06D897E898F89988D20E030E04AE767
:1023C00054E40E941903DC01CB018C879D87AE8702
:1023D000BF876C857D858E859F8520E030E04AEF44
:1023E00054E40E941F02DC01CB0188879987AA87E9
:1023F000BB87688579858A859B8520E030E040E849
:102400005FE30E94250488232CF481E090E09F8301
:102410008E833FC0688579858A859B8520E03FEF64
:102420004FE757E40E94C50318164CF56C857D856F
:102430008E859F8520E030E040E251E40E941F023B
:10244000DC01CB01BC01CD010E944900DC01CB01C4
:102450009F838E830FC088EC90E09D838C838C815A
:102460009D810197F1F79D838C838E819F810197D8
:102470009F838E838E819F81009769F724C0688532
:1024800079858A859B850E944900DC01CB019F8369
:102490008E838E819F819B838A838A819B81019712
:1024A000F1F79B838A830FC069897A898B899C891C
:1024B0000E944900DC01CB01888B8889898389814E
:1024C0008A95F1F7898382E00E94330E88E20E94A8
:1024D000650E8CE00E94650E86E00E94650E0E94EB
:1024E000770FC45BDF4F0FB6F894DEBF0FBECDBFD2
:1024F000CF91DF911F910F910895DF93CF93CDB7C7
:10250000DEB76B970FB6F894DEBF0FBECDBF1A8E45
:102510000AC181E06FEF0E94180A8A8D882F90E02F
:10252000FC01E85DFE4F908181E0692F40E00E9450
:102530006C0980E090E0A0E0B0E48D8B9E8BAF8BC7
:10254000B88F6D897E898F89988D2BEA3AEA4AE2A5
:1025500050E40E941F02DC01CB01898B9A8BAB8B6C
:10256000BC8B69897A898B899C8920E030E040E8BE
:102570005FE30E94250488231CF481E0888B91C0CE
:1025800069897A898B899C8920E030E04FE753E4A0
:102590000E94C50318160CF07BC06D897E898F8957
:1025A000988D20E030E04AE754E40E941903DC01F2
:1025B000CB018C879D87AE87BF876C857D858E8597
:1025C0009F8520E030E04AEF54E40E941F02DC01C6
:1025D000CB0188879987AA87BB87688579858A8593
:1025E0009B8520E030E040E85FE30E9425048823DB
:1025F0002CF481E090E09F838E833FC068857985CD
:102600008A859B8520E03FEF4FE757E40E94C50392
:1026100018164CF56C857D858E859F8520E030E011
:1026200040E251E40E941F02DC01CB01BC01CD015C
:102630000E944900DC01CB019F838E830FC088EC90
:1026400090E09D838C838C819D810197F1F79D8320
:102650008C838E819F8101979F838E838E819F8142
:10266000009769F724C0688579858A859B850E94D3
:102670004900DC01CB019F838E838E819F819B83E8
:102680008A838A819B810197F1F79B838A830FC09C
:1026900069897A898B899C890E944900DC01CB0178
:1026A000888B8889898389818A95F1F78983198E36
:1026B00034C0E6E3F0E08081282F30E0898D882F58
:1026C00090E0FC01EC5DFE4F8081882F90E0A90135
:1026D00002C0559547958A95E2F7CA0181709070BE
:1026E0000097C1F48A8D282F30E083E090E0AC01A0
:1026F000421B530B898D282F30E0CA01880F991F88
:10270000880F991F820F931FFC01E45DFE4F5081DB
:102710005B8F0EC0898D8F5F898F898D843048F2E1
:102720008A8D8F5F8A8F8A8D843008F4F2CE1B8E5B
:102730008B8D6B960FB6F894DEBF0FBECDBFCF91D9
:10274000DF910895DF93CF93CDB7DEB781E06FE0DF
:102750000E94060A81E06FEF0E94180ACF91DF9174
:102760000895DF93CF9300D0CDB7DEB70E947D12DE
:102770008983909170018981891751F480916E014C
:10278000833058F480916E018F5F80936E0105C095
:1027900089818093700110926E0180916F0188236E
:1027A00039F08981882311F410926F011A820EC0CA
:1027B0008981882351F080916E01823030F08981C7
:1027C00080936F0189818A8301C01A828A810F9068
:1027D0000F90CF91DF910895DF93CF93CDB7DEB700
:1027E000A1E3B0E0E1E3F0E0808180688C93A2E3B4
:1027F000B0E0E2E3F0E080818F778C93CF91DF91BE
:102800000895DF93CF93CDB7DEB781E08093710158
:10281000A1E3B0E0E1E3F0E0808180688C93A2E383
:10282000B0E0E2E3F0E0808180688C93CF91DF91AB
:102830000895DF93CF93CDB7DEB7A2E3B0E0E2E334
:10284000F0E080818F778C9310927101CF91DF91AE
:102850000895DF93CF93CDB7DEB780917101CF910B
:10286000DF910895DF93CF93CDB7DEB781E08093FA
:102870002201CF91DF910895DF93CF9300D0CDB7A0
:10288000DEB789838981843049F08981853031F0D0
:102890008981863019F08981873019F481E08A8333
:1028A00001C01A828A810F900F90CF91DF91089515
:1028B000DF93CF93CDB7DEB781E0809399010E947B
:1028C0000308DC01CB0180939A0190939B01A093B4
:1028D0009C01B0939D01109275010E943214CF911A
:1028E000DF910895DF93CF9300D0CDB7DEB780910D
:1028F00099018823E9F00E940308DC01CB012091B3
:102900009A0130919B0140919C0150919D01821B45
:10291000930BA40BB50B803D27E0920720E0A207A4
:1029200020E0B20728F481E090E09A83898302C016
:102930001A82198289810F900F90CF91DF910895AB
:102940001F93DF93CF93CDB7DEB72F970FB6F894D1
:10295000DEBF0FBECDBF80917201843049F58091FA
:102960007401882359F480910901883118F421E019
:102970002E8701C01E868E858F87D1C080917401FD
:10298000813059F4809108018C3318F491E09D87CF
:1029900001C01D862D852F87C2C0809107018C3311
:1029A00018F481E08C8701C01C869C859F87B7C086
:1029B00080917201853009F06CC080917401882388
:1029C00029F580911401882321F0809114018D3024
:1029D00010F01F86A4C080911301882391F01091FC
:1029E0001301809114012091150130911601B90154
:1029F0000E94251C811728F081E090E09B878A8740
:102A000002C01B861A869A859F8789C080917401AF
:102A1000813029F580911401882321F080911401DF
:102A20008D3010F01F867BC080911301882391F0B8
:102A3000109113018091140120911501309116011C
:102A4000B9010E94251C811728F081E090E0998748
:102A5000888702C01986188698859F8760C08091F4
:102A600015019091160127E0803D920768F0809152
:102A700015019091160128E08433920728F481E033
:102A800090E09F838E8302C01F821E829E819F875B
:102A900046C0809172018630D1F480917401882300
:102AA00059F480911901883118F421E02D8301C077
:102AB0001D828D818F8733C080911A018C3318F469
:102AC00091E09C8301C01C822C812F8728C08091BB
:102AD0007401882359F480911E01843618F481E032
:102AE0008B8301C01B829B819F8719C080917401D9
:102AF000813059F480911F018C3318F421E02A832E
:102B000001C01A828A818F870AC0809120018C338C
:102B100018F491E0998301C0198229812F878F854C
:102B20002F960FB6F894DEBF0FBECDBFCF91DF91C9
:102B30001F910895DF93CF93CDB7DEB780917201D7
:102B40008430E9F480917401882339F4809176010E
:102B5000909177018093090167C080917401813061
:102B600039F48091760190917701809308015CC0DF
:102B700080917601909177018093070155C08091F3
:102B800072018530F9F480917401882339F48091C1
:102B90007601909177018093130146C08091740172
:102BA000813039F4809176019091770180931401FE
:102BB0003BC08091760190917701909316018093AC
:102BC000150132C080917201863091F480917401B8
:102BD000882339F4809176019091770180931901CF
:102BE00023C0809176019091770180931A011CC0D7
:102BF00080917401882339F4809176019091770156
:102C000080931E0111C080917401813039F480914C
:102C100076019091770180931F0106C08091760123
:102C20009091770180932001CF91DF910895DF93F8
:102C3000CF93CDB7DEB727970FB6F894DEBF0FBEA0
:102C4000CDBF80917501882311F01F824FC0809104
:102C500072018430B1F480910901883168F4809167
:102C600008018C3348F4809107018C3328F481E00B
:102C700090E09E838D8302C01E821D829D819F8372
:102C800035C080917201853031F48FE091E00E946F
:102C9000541C8F832BC080917201863091F48091F7
:102CA0001901883148F480911A018C3328F481E0AD
:102CB00090E09C838B8302C01C821B829B819F833C
:102CC00015C080911E01843668F480911F018C33F9
:102CD00048F4809120018C3328F481E090E09A83BD
:102CE000898302C01A82198299819F838F812796D6
:102CF0000FB6F894DEBF0FBECDBFCF91DF91089520
:102D0000DF93CF930F92CDB7DEB7809172018530FC
:102D100039F480917401823019F484E0898302C00F
:102D200082E0898389810F90CF91DF910895DF93AD
:102D3000CF9300D000D00F92CDB7DEB78A838091B9
:102D400072010E943C14882331F08A81833229F079
:102D50008A818A3211F01D8236C0809172018630DC
:102D600019F482E08C8302C093E09C838C81898378
:102D70008A81833289F480917401882F90E0AC01BC
:102D80004F5F5F4F8981282F30E0CA01B9010E944F
:102D9000822C8093740111C080917401882329F4DE
:102DA0008981982F91509B8305C080917401982F41
:102DB00091509B838B8180937401109275010E94C6
:102DC000321491E09D838D810F900F900F900F90A2
:102DD0000F90CF91DF9108951F93DF93CF93CDB7DD
:102DE000DEB7A2970FB6F894DEBF0FBECDBF8B83C0
:102DF000809172010E943C14882331F08B818234CF
:102E000029F08B81833411F01AA209C28B8182349C
:102E100019F421E029A301C019A239A13A83109223
:102E200075011092990180917201843009F06BC094
:102E300080917401882309F58A81882361F080914B
:102E40000901882F90E0019628E130E0B9010E9445
:102E5000822C88A30EC080910901882331F08091D3
:102E60000901982F91509F8F02C027E12F8F3F8D2E
:102E700038A388A180930901CEC18091740181306B
:102E800009F58A81882361F080910801882F90E0FC
:102E900001962CE330E0B9010E94822C8E8F0EC087
:102EA00080910801882331F080910801982F91507A
:102EB0009D8F02C02BE32D8F3D8D3E8F8E8D809395
:102EC0000801A9C18A81882361F080910701882FB8
:102ED00090E001962CE330E0B9010E94822C8C8FA7
:102EE0000EC080910701882331F080910701982F4F
:102EF00091509B8F02C02BE32B8F3B8D3C8F8C8D91
:102F00008093070188C180917201853009F0CCC09F
:102F100080917401882379F5809114012091150125
:102F200030911601B9010E94251C89838A8188236A
:102F300081F0909113018981981730F480911301E9
:102F4000982F9F5F998F02C021E0298F398D3A8F8A
:102F50000EC080911301823030F080911301982FC0
:102F60009150988F02C02981288F388D3A8F8A8D91
:102F70008093130150C1809174018130E9F58A81F9
:102F8000882379F0809114018C3030F48091140101
:102F9000982F9F5F9E8B02C021E02E8B3E893F8B36
:102FA0000EC080911401823030F080911401982F6E
:102FB00091509D8B02C02CE02D8B3D893F8B8F89DA
:102FC0008093140110911301809114012091150137
:102FD00030911601B9010E94251C811708F01BC110
:102FE000809114012091150130911601B9010E94C0
:102FF000251C809313010FC18A818823D9F0809109
:1030000015019091160128E08333920750F48091C6
:103010001501909116019C012F5F3F4F3A8B298B30
:1030200004C080ED97E09A8B898B29893A893C8B83
:103030002B8B1AC0809115019091160137E0813DCC
:10304000930750F080911501909116019C01215039
:103050003040388B2F8704C083E398E0988B8F87AC
:103060002F8538893C8B2B8B8B899C8990931601FB
:103070008093150110911301809114012091150185
:1030800030911601B9010E94251C811708F0C3C0B8
:10309000809114012091150130911601B9010E940F
:1030A000251C80931301B7C080917201863009F00E
:1030B00046C080917401882309F58A81882361F0D4
:1030C00080911901882F90E0019628E130E0B90144
:1030D0000E94822C8E870EC080911901882331F0C6
:1030E00080911901982F91509D8702C027E12D876B
:1030F0003D853E878E85809319018DC08A81882306
:1031000061F080911A01882F90E001962CE330E065
:10311000B9010E94822C8C870EC080911A018823ED
:1031200031F080911A01982F91509B8702C02BE3B8
:103130002B873B853C878C8580931A016CC08091DE
:103140007401882319F58A81882371F080911E010A
:10315000833630F480911E01982F9F5F998701C0BC
:10316000198629852A870EC080911E01882331F097
:1031700080911E01382F3150388702C083E688873E
:1031800098859A872A8520931E0145C080917401F5
:10319000813009F58A81882361F080911F01882F91
:1031A00090E001962CE330E0B9010E94822C8F83DD
:1031B0000EC080911F01882331F080911F01382FAC
:1031C00031503E8302C08BE38E839E819F832F818B
:1031D00020931F0120C08A81882361F08091200103
:1031E000882F90E001962CE330E0B9010E94822CF8
:1031F0008D830EC080912001882331F080912001C1
:10320000382F31503C8302C08BE38C839C819D839B
:103210002D81209320010E94321431E03AA38AA12B
:10322000A2960FB6F894DEBF0FBECDBFCF91DF914F
:103230001F910895DF93CF9300D000D0CDB7DEB7B4
:103240008B83809172010E943C14882331F08B8122
:10325000803318F08B818A3310F01C8219C28B8165
:1032600080538A830E948016898380917501882308
:1032700009F0D3C0809172018430B1F5809174015E
:10328000882349F480910901882F90E09093770179
:103290008093760115C080917401813049F480914A
:1032A0000801882F90E0909377018093760108C001
:1032B00080910701882F90E09093770180937601A9
:1032C00080917401882321F48A8180930901AEC121
:1032D00080917401813021F48A8180930801A6C114
:1032E0008A8180930701A2C1809172018530D1F556
:1032F00080917401882349F480911301882F90E014
:10330000909377018093760115C08091740181308C
:1033100049F480911401882F90E090937701809375
:10332000760108C080911501909116019093770164
:103330008093760180917401882321F48A8180939F
:10334000130174C180917401813021F48A818093CA
:1033500014016CC18A81882F90E0909316018093AC
:10336000150164C180917201863009F58091740164
:10337000882349F480911901882F90E09093770178
:103380008093760108C080911A01882F90E0909375
:1033900077018093760180917401882321F48A81DA
:1033A0008093190143C18A8180931A013FC18091A2
:1033B0007401882349F480911E01882F90E0909336
:1033C00077018093760115C080917401813049F4B2
:1033D00080911F01882F90E0909377018093760170
:1033E00008C080912001882F90E09093770180930E
:1033F000760180917401882321F48A8180931E01D3
:1034000015C180917401813021F48A8180931F015C
:103410000DC18A818093200109C18091720184309D
:1034200009F044C0809174018823A1F480910901BE
:10343000882F90E09C01220F331FC901880F991F2C
:10344000880F991F820F931F982F8A81890F80936D
:103450000901ECC0809174018130A1F480910801D0
:10346000882F90E09C01220F331FC901880F991FFC
:10347000880F991F820F931F982F8A81890F80933D
:103480000801D4C080910701882F90E09C01220F91
:10349000331FC901880F991F880F991F820F931F2F
:1034A000982F8A81890F80930701C0C08091720193
:1034B000853009F048C0809174018823A1F480917F
:1034C0001301882F90E09C01220F331FC901880F40
:1034D000991F880F991F820F931F982F8A81890F38
:1034E00080931301A3C0809174018130A1F4809175
:1034F0001401882F90E09C01220F331FC901880F0F
:10350000991F880F991F820F931F982F8A81890F07
:10351000809314018BC080911501909116019C013C
:10352000220F331FC901880F991F880F991F280F79
:10353000391F8A81882F90E0820F931F9093160184
:103540008093150173C080917201863061F580917E
:1035500074018823A1F480911901882F90E09C01C7
:10356000220F331FC901880F991F880F991F820FDF
:10357000931F982F8A81890F8093190157C08091DA
:103580001A01882F90E09C01220F331FC901880F78
:10359000991F880F991F820F931F982F8A81890F77
:1035A00080931A0143C0809174018823A1F4809113
:1035B0001E01882F90E09C01220F331FC901880F44
:1035C000991F880F991F820F931F982F8A81890F47
:1035D00080931E012BC0809174018130A1F48091F1
:1035E0001F01882F90E09C01220F331FC901880F13
:1035F000991F880F991F820F931F982F8A81890F17
:1036000080931F0113C080912001882F90E09C01BE
:10361000220F331FC901880F991F880F991F820F2E
:10362000931F982F8A81890F8093200180917501C3
:103630008F5F80937501909175018981981720F1B2
:103640000E94A014882339F40E949A150E945814ED
:1036500081E08C831DC010927501809172018630CB
:1036600039F4809174018F5F8170809374010CC074
:1036700080917401882F90E0019623E030E0B90139
:103680000E94822C809374010E94321481E08C830A
:103690008C810F900F900F900F90CF91DF91089534
:1036A000DF93CF9300D000D00F92CDB7DEB79B83CE
:1036B0008A836C834D83809123018823C9F4198206
:1036C00013C08C81282F30E08981882F90E0820FF1
:1036D000931F9C018A819B81FC01E20FF31F80E212
:1036E000808389818F5F898399818D81981748F3C1
:1036F0000F900F900F900F900F90CF91DF91089542
:103700000F93DF93CF93CDB7DEB727970FB6F8941B
:10371000DEBF0FBECDBF9B838A836C834D832E8318
:103720000F839C818D819817D0F48C81482F50E0B5
:103730008E81282F30E08F81882F90E0820F931F99
:103740009C01429FC001439F900D529F900D1124F8
:1037500089838A819B8169814E810E94501B2796B3
:103760000FB6F894DEBF0FBECDBFCF91DF910F91A2
:103770000895DF93CF9300D000D00F92CDB7DEB77E
:103780009A8389836B838B81282F30E03D832C8340
:103790008C819D818130910581F02C813D81223089
:1037A000310591F08C819D810097A1F489819A81E6
:1037B00060E042E00E94501B0DC089819A8163E065
:1037C00042E00E94501B06C089819A8166E044E075
:1037D0000E94501B0F900F900F900F900F90CF9161
:1037E000DF910895DF93CF9300D000D0CDB7DEB73F
:1037F0009A83898389819A8120E931E0B9010E9405
:10380000822C009719F481E08C8317C089819A81FA
:1038100024E630E0B9010E94822C009711F41C824A
:103820000CC089819A8183709070009719F481E0AF
:103830008B8301C01B828B818C838C810F900F90B6
:103840000F900F90CF91DF910895DF93CF9300D029
:1038500000D0CDB7DEB789837B836A8389818230CC
:1038600049F48A819B810E94F21B882319F08DE123
:103870008C8312C08981882369F089818D3050F44E
:103880008981882F90E00197FC01E45CFE4F8081E4
:103890008C8302C08FE18C838C810F900F900F90EE
:1038A0000F90CF91DF9108951F93DF93CF9300D0B6
:1038B00000D0CDB7DEB79A838983E981FA81808110
:1038C0008C3350F4E981FA8181818C3328F4E981C9
:1038D000FA818281883110F01C8230C0E981FA813E
:1038E0008581882351F0E981FA8185818D3028F422
:1038F000E981FA818481882311F41C821FC0E98147
:10390000FA811481E981FA818581E981FA81268130
:103910003781B9010E94251C811710F41C820EC04A
:10392000E981FA818681978127E0803D920718F02E
:1039300081E08B8301C01B822B812C838C810F90B3
:103940000F900F900F90CF91DF911F910895DF930B
:10395000CF9300D000D0CDB7DEB79A8389836B8335
:103960004C838B81833028F489819A8101979A83D3
:10397000898389819A819C0136952795369527956B
:1039800089819A81F901E80FF91F89819A8124E6DA
:1039900030E0B9010E94822CCB01E81BF90B898130
:1039A0009A8120E931E0B9010E94822CCB019F016C
:1039B000280F391F8B81882F90E00197FC01E85B6D
:1039C000FE4F8081882F90E0280F391F8C81882F2F
:1039D00090E0820F931F27E030E0B9010E94822C13
:1039E0008F5F0F900F900F900F90CF91DF91089500
:1039F000EF92FF920F931F93DF93CF9300D0CDB739
:103A0000DEB79A838983E981FA818081882F90E0EB
:103A1000A0E0B0E020E13EE040E050E0BC01CD019C
:103A20000E94572C7B018C01E981FA818181882FCA
:103A300090E0A0E0B0E02CE330E040E050E0BC01DA
:103A4000CD010E94572CDC01CB01A8019701280F62
:103A5000391F4A1F5B1FE981FA818281882F90E01C
:103A6000A0E0B0E0820F931FA41FB51FBC01CD01E1
:103A70000F900F90CF91DF911F910F91FF90EF90DA
:103A80000895DF93CF9300D000D000D0CDB7DEB73C
:103A900069837A838B839C835E834D8389819A813A
:103AA000AB81BC8120E13EE040E050E0BC01CD01B3
:103AB0000E94962CDA01C901ED81FE818083898103
:103AC0009A81AB81BC8120E13EE040E050E0BC0146
:103AD000CD010E94962CDC01CB0189839A83AB83B4
:103AE000BC8389819A81AB81BC812CE330E040E0CA
:103AF00050E0BC01CD010E94962CDA01C901ED8194
:103B0000FE81818389819A81AB81BC812CE330E085
:103B100040E050E0BC01CD010E94962CDC01CB01BD
:103B2000ED81FE81828326960FB6F894DEBF0FBE2C
:103B3000CDBFCF91DF910895DF93CF9300D000D018
:103B400000D0CDB7DEB769837A838B839C835E8395
:103B50004D8389819A81AB81BC8120E13EE040E0C8
:103B600050E0BC01CD010E94962CDA01C901ED8123
:103B7000FE81808389819A81AB81BC8120E13EE016
:103B800040E050E0BC01CD010E94962CDC01CB014D
:103B900089839A83AB83BC8389819A81AB81BC8101
:103BA0002CE330E040E050E0BC01CD010E94962CB7
:103BB000DA01C901ED81FE81818389819A81AB811E
:103BC000BC812CE330E040E050E0BC01CD010E941C
:103BD000962CDC01CB01ED81FE81828326960FB607
:103BE000F894DEBF0FBECDBFCF91DF910895EF9265
:103BF000FF920F931F93DF93CF9300D0CDB7DEB723
:103C00009A838983E981FA818081882F90E0A0E0FE
:103C1000B0E020E13EE040E050E0BC01CD010E9478
:103C2000572C7B018C01E981FA818181882F90E0FA
:103C3000A0E0B0E02CE330E040E050E0BC01CD017A
:103C40000E94572CDC01CB01A8019701280F391FD6
:103C50004A1F5B1FE981FA818281882F90E0A0E0F2
:103C6000B0E0820F931FA41FB51FBC01CD010F90C0
:103C70000F90CF91DF911F910F91FF90EF900895DA
:103C8000DF93CF9300D000D00F92CDB7DEB79A83E9
:103C900089836B834C832D838B819AE0692F0E94EB
:103CA000762C805DE981FA81808389819A81FC018B
:103CB00031968B819AE0692F0E94762C892F805D46
:103CC000808389819A81FC0132968AE3808389818D
:103CD0009A81FC0133968C819AE0692F0E94762CA0
:103CE000805D808389819A81FC0134968C819AE081
:103CF000692F0E94762C892F805D808389819A812B
:103D0000FC0135968AE3808389819A81FC0136968D
:103D10008D819AE0692F0E94762C805D8083898155
:103D20009A81FC0137968D819AE0692F0E94762C4A
:103D3000892F805D808389819A81FC013896108269
:103D40000F900F900F900F900F90CF91DF910895EB
:103D5000DF93CF9300D000D000D0CDB7DEB79A83E9
:103D600089836B834C833E832D838B819AE0692FFB
:103D70000E94762C805DE981FA81808389819A8115
:103D8000FC0131968B819AE0692F0E94762C892F55
:103D9000805D808389819A81FC0132968FE28083E5
:103DA00089819A81FC0133968C819AE0692F0E9467
:103DB000762C805D808389819A81FC0134968C8188
:103DC0009AE0692F0E94762C892F805D80838981FB
:103DD0009A81FC0135968FE2808389819A81FC016A
:103DE00036968D819E8128EE33E0B9010E94822CA7
:103DF000CB01805D808389819A81FC0137968D811A
:103E00009E8124E630E0B9010E94822CCB012AE099
:103E100030E0B9010E94822C805D808389819A8183
:103E2000FC0138968D819E812AE030E0B9010E9424
:103E3000822CCB012AE030E0B9010E94822C805D07
:103E4000808389819A81FC0139968D819E812AE047
:103E500030E0B9010E94822C805D808389819A8143
:103E6000FC013A96108226960FB6F894DEBF0FBE7C
:103E7000CDBFCF91DF910895DF93CF9300D000D0D5
:103E8000CDB7DEB79A8389836B834C838B819AE0AD
:103E9000692F0E94762C805DE981FA818083898177
:103EA0009A81FC0131968B819AE0692F0E94762CD1
:103EB000892F805D808389819A81FC0132968AE313
:103EC000808389819A81FC0133968C819AE0692FE5
:103ED0000E94762C805D808389819A81FC013496D2
:103EE0008C819AE0692F0E94762C892F805D8083D7
:103EF00089819A81FC01359610820F900F900F9066
:103F00000F90CF91DF910895DF93CF9300D000D031
:103F1000CDB7DEB79A8389837C836B83EB81FC8189
:103F20003081EB81FC814181EB81FC81228189819F
:103F30009A81632F0E94401E0F900F900F900F9058
:103F4000CF91DF910895DF93CF9300D000D0CDB70C
:103F5000DEB79A8389837C836B83EB81FC8130811C
:103F6000EB81FC814181EB81FC81228189819A81F5
:103F7000632F0E94401E0F900F900F900F90CF91D3
:103F8000DF910895DF93CF9300D000D000D0CDB75C
:103F9000DEB79B838A837D836C834E83198215C031
:103FA0008981282F30E08A819B81DC01A20FB31F19
:103FB0008981282F30E08C819D81FC01E20FF31F65
:103FC00080818C9389818F5F89838981282F30E05C
:103FD0008C819D81FC01E20FF31F8081882391F089
:103FE00099818E819817E0F20DC08981282F30E0E9
:103FF0008A819B81FC01E20FF31F80E2808389812B
:104000008F5F898399818E81981778F38E81282F0D
:1040100030E08A819B81FC01E20FF31F108226961B
:104020000FB6F894DEBF0FBECDBFCF91DF910895DC
:10403000DF93CF93CDB7DEB764970FB6F894DEBFAA
:104040000FBECDBF8A8B7C8B6B8B2B893C89CE01BD
:104050000196B90140E10E94C21F8A8960E09E0179
:104060002F5F3F4FA9010E945E0F64960FB6F89430
:10407000DEBF0FBECDBFCF91DF910895DF93CF9309
:10408000CDB7DEB768970FB6F894DEBF0FBECDBFD1
:104090008C8B7E8B6D8B588F4F8B1A82198218C038
:1040A0008A81482F50E08981282F30E08D899E89B0
:1040B000FC01E20FF31F2081CE010396FC01E40F07
:1040C000F51F20838A818F5F8A8389818F5F89832F
:1040D0008981282F30E08D899E89FC01E20FF31F32
:1040E0008081882389F08A818830D0F20DC08A814E
:1040F000282F30E0CE010396FC01E20FF31F80E28F
:1041000080838A818F5F8A838A81883080F31982D5
:1041100018C08A81482F50E08981282F30E08F898C
:10412000988DFC01E20FF31F2081CE010396FC0164
:10413000E40FF51F20838A818F5F8A8389818F5FD7
:1041400089838981282F30E08F89988DFC01E20FC7
:10415000F31F8081882389F08A818031D0F20DC0DD
:104160008A81282F30E0CE010396FC01E20FF31F75
:1041700080E280838A818F5F8A838A81803180F3A5
:104180001B8A9E012D5F3F4F8C8960E0A9010E9430
:104190005E0F68960FB6F894DEBF0FBECDBFCF910D
:1041A000DF910895DF93CF93CDB7DEB7A3970FB616
:1041B000F894DEBF0FBECDBF209101013091000108
:1041C0005091FF00CE010296622F432F252F0E94AF
:1041D000401E20E630E0AE014E5F5F4F80E0B90147
:1041E0000E943E204091030150910401209105015D
:1041F00030910601CE014396642F452F0E94A81EE0
:104200008AE089831BC08981882F90E0AC014B5FD5
:104210005F4F8981882F90E09C0121503040CE0172
:104220004396FC01E20FF31F2081CE014396FC016F
:10423000E40FF51F20838981815089838981882338
:1042400011F784E48B8B81E68C8B84E78D8B85E67C
:104250008E8B8AE38F8B80E2888F1BA29E012D5E5E
:104260003F4F81E0B9010E941820A3960FB6F89441
:10427000DEBF0FBECDBFCF91DF910895DF93CF9307
:10428000CDB7DEB76C970FB6F894DEBF0FBECDBFCB
:1042900080917801882329F086E690E09C8F8B8FAF
:1042A00004C08EE690E09C8F8B8F8B8D9C8D9B83C2
:1042B0008A832091170130911801CE014596622F13
:1042C000432F0E943C1F19820DC08981282F30E0A6
:1042D000CE010496FC01E20FF31F80E28083898106
:1042E0008F5F89838981803180F381E48C838CE4C2
:1042F0008D8381E48E8382E58F838DE488871982A4
:1043000018C08981882F90E0AC01455F5F4F89819B
:10431000282F30E0CE014596FC01E20FF31F2081EB
:10432000CE010496FC01E40FF51F208389818F5F85
:1043300089838981853028F31C8A9E012C5F3F4F39
:1043400080E060E0A9010E945E0FCE0104962A8100
:104350003B81B90140E10E94C21F82E48F878DE357
:10436000888B84E5898B87E48A8B8CE48B8B9E0118
:104370002C5F3F4F81E060E0A9010E945E0F6C96C8
:104380000FB6F894DEBF0FBECDBFCF91DF91089579
:10439000DF93CF93CDB7DEB76F970FB6F894DEBF3C
:1043A0000FBECDBF80918601882329F087E790E07A
:1043B0009F8F8E8F04C08FE790E09F8F8E8F8E8DA2
:1043C0009F8D9B838A8319820DC08981282F30E0BD
:1043D000CE010496FC01E20FF31F80E28083898105
:1043E0008F5F89838981803180F383E58C8384E5C5
:1043F0008D838FE48E8380E58F8387E5888781E4D2
:10440000898784E58A8783E48B8788E48C8784E4C2
:104410008F878DE3888B82E5898B83E58A8B84E5A2
:104420008B8B1C8A9E012C5F3F4F80E060E0A901CE
:104430000E945E0FCE0145962BE731E0B9010E9444
:10444000A31FCE0104962A813B81B90140E10E945D
:10445000C21F198218C08981882F90E0AC01485F83
:104460005F4F8981282F30E0CE014596FC01E20F95
:10447000F31F2081CE010496FC01E40FF51F208379
:1044800089818F5F89838981883028F39E012C5F21
:104490003F4F81E060E0A9010E945E0F6F960FB66A
:1044A000F894DEBF0FBECDBFCF91DF910895DF93AB
:1044B000CF93CDB7DEB761970FB6F894DEBF0FBECE
:1044C000CDBF27E830E080E0B9010E9418202BE141
:1044D00031E0CE010196B9010E94841F81E09E0166
:1044E0002F5F3F4FB9010E94182061960FB6F894D4
:1044F000DEBF0FBECDBFCF91DF9108950F93DF9345
:10450000CF93CDB7DEB769970FB6F894DEBF0FBE75
:10451000CDBF9B8B8A8B7D8B6C8B0E947214882302
:1045200091F480919801882329F48A899B899F8B33
:104530008E8B04C088E990E09F8B8E8B8E899F893B
:10454000998F888F04C088EA90E0998F888F80E0E7
:10455000688D798D0E941820809172018430C9F491
:10456000EC89FD893281EC89FD894181EC89FD89E5
:104570002081CE010196632F0E94401E209174017C
:10458000CE010196622F43E022E001E00E94801BF1
:1045900017C0EC89FD894481EC89FD895581EC893E
:1045A000FD8926813781CE010196642F452F0E9417
:1045B000A81E20917401CE010196622F0E94B91BA2
:1045C00081E09E012F5F3F4FB9010E94182069963C
:1045D0000FB6F894DEBF0FBECDBFCF91DF910F9124
:1045E00008950F93DF93CF93CDB7DEB763970FB6E0
:1045F000F894DEBF0FBECDBF0E947214882329F04D
:1046000088EA90E09B8B8A8B04C086EB90E09B8BC2
:104610008A8B80E06A897B890E9418202091190189
:1046200030911A01CE010196622F432F0E943C1F48
:1046300020917401CE010196622F42E022E001E058
:104640000E94801B81E09E012F5F3F4FB9010E94B5
:10465000182063960FB6F894DEBF0FBECDBFCF9182
:10466000DF910F9108950F93DF93CF93CDB7DEB70E
:1046700063970FB6F894DEBF0FBECDBF0E947214D1
:10468000882329F088EA90E09B8B8A8B04C087EC12
:1046900090E09B8B8A8B80E06A897B890E9418203E
:1046A0002EE131E0CE010196B9010E94841F2091D4
:1046B0007401CE010196622F43E022E001E00E94E6
:1046C000801B81E09E012F5F3F4FB9010E9418209F
:1046D00063960FB6F894DEBF0FBECDBFCF91DF91CA
:1046E0000F910895DF93CF9300D0CDB7DEB710922E
:1046F000220180917201282F30E03A832983898139
:104700009A818330910591F129813A8124303105D4
:104710007CF489819A818130910511F129813A8156
:104720002230310504F589819A810097B1F036C0B5
:1047300029813A812530310521F189819A8185309D
:104740009105BCF029813A812630310511F189812A
:104750009A818730910501F121C00E94D2201EC0AC
:104760000E943E211BC00E94C82118C00E945722EF
:1047700015C085ED90E027E031E0B9010E947E226E
:104780000DC086EE90E02FE031E0B9010E947E225C
:1047900005C00E94F12202C00E9433230F900F90A7
:1047A000CF91DF910895DF93CF930F92CDB7DEB70E
:1047B000898389818093720110927401109275012E
:1047C0001092990181E0809323010E940308DC018B
:1047D000CB018093940190939501A0939601B0939F
:1047E00097010E9432140F90CF91DF910895DF93CB
:1047F000CF93CDB7DEB780917201882321F481E099
:104800000E94D32317C080917201813021F482E08D
:104810000E94D3230FC080917201823021F483E083
:104820000E94D32307C080917201833019F480E085
:104830000E94D323CF91DF910895DF93CF93CDB71B
:10484000DEB780917301809372011092740181E050
:10485000809323010E943214CF91DF910895DF935A
:10486000CF9300D000D000D0CDB7DEB780910D013E
:1048700090910E0120910C0130910B01622F432F7A
:104880000E94A71C80930A0187E091E00E945C0BC4
:10489000882329F481E080939801198224C08FEF46
:1048A00090E09B838A83E7E0F1E0FD83EC83F8E00E
:1048B000FE83EC81FD8100808C819D8101969D832A
:1048C0008C83EA81FB8100828A819B8101969B8394
:1048D0008A839E8191509E83EE81EE2351F7109240
:1048E0009801F1E0F983898126960FB6F894DEBF2E
:1048F0000FBECDBFCF91DF910895DF93CF9300D04E
:1049000000D000D0CDB7DEB780911501909116018F
:104910002091140130911301622F432F0E94A71C94
:10492000809312018FE091E00E945C0B882329F4B0
:1049300081E080939801198224C08FEF90E09B83DF
:104940008A83EFE0F1E0FD83EC83F8E0FE83EC8105
:10495000FD8100808C819D8101969D838C83EA81FD
:10496000FB8100828A819B8101969B838A839E8141
:1049700091509E83EE81EE2351F710929801F1E061
:10498000F983898126960FB6F894DEBF0FBECDBF9E
:10499000CF91DF910895DF93CF93CDB7DEB78091AC
:1049A000190190911A019093180180931701809139
:1049B0007A01813011F40E94622581E080937801B0
:1049C00010927901CF91DF910895DF93CF9300D0BA
:1049D00000D00F92CDB7DEB78BE191E09A83898347
:1049E000EEE1F1E0FC83EB83F3E0FD83EB81FC81FE
:1049F00000808B819C8101969C838B83E981FA8165
:104A0000008289819A8101969A8389839D81915040
:104A10009D83ED81EE2351F71092870180917A01F9
:104A2000823011F40E9462250F900F900F900F902A
:104A30000F90CF91DF910895DF93CF93CDB7DEB77D
:104A4000809178018823D9F180917A018823B9F582
:104A50009091010180911701981719F5909100012B
:104A6000809118019817E9F480917901882339F52C
:104A700081E080937A010E940308DC01CB01885415
:104A8000944FAF4FBF4F8093880190938901A093BB
:104A90008A01B0938B010E94011481E08093790117
:104AA0000EC09091010180911701981731F49091F7
:104AB000000180911801981711F010927901CF919F
:104AC000DF910895DF93CF93CDB7DEB710927A01CF
:104AD000109288011092890110928A0110928B0124
:104AE0000E941914CF91DF910895EF92FF920F93D6
:104AF0001F93DF93CF93CDB7DEB72D970FB6F89402
:104B0000DEBF0FBECDBF69877A878B879C87809178
:104B10008601882311F41D867CC020917E0130918E
:104B20007F01409180015091810189859A85AB85F3
:104B3000BC85821B930BA40BB50B8D839E83AF8327
:104B4000B8878D819E81AF81B885883E23E092072A
:104B500020E0A20720E0B20708F45AC08BE791E0FA
:104B60000E94F71D7B018C018D819E81AF81B885EC
:104B700028EE33E040E050E0BC01CD010E94962CCD
:104B8000DA01C9018E0D9F1DA01FB11F89839A8371
:104B9000AB83BC8389819A81AB81BC8180342EE751
:104BA000920725E0A20720E0B20720F019821A82BE
:104BB0001B821C8289819A81AB81BC812BE731E009
:104BC000BC01CD01A9010E949C1D8D819E81AF81F8
:104BD000B88528EE33E040E050E0BC01CD010E94F2
:104BE000962CDC01CB019C01AD0189859A85AB85B2
:104BF000BC85821B930BA40BB50B80937E01909315
:104C00007F01A0938001B093810181E08D8701C075
:104C10001D868D852D960FB6F894DEBF0FBECDBFD5
:104C2000CF91DF911F910F91FF90EF900895EF9238
:104C3000FF920F931F93DF93CF93CDB7DEB76197AA
:104C40000FB6F894DEBF0FBECDBF69877A878B871A
:104C50009C8780918701882311F4198AC0C0209114
:104C600082013091830140918401509185018985B1
:104C70009A85AB85BC85821B930BA40BB50B8D83EA
:104C80009E83AF83B8878D819E81AF81B885883E32
:104C900003E0900700E0A00700E0B00710F4198AD5
:104CA0009EC08BE191E00E94F81CDC01CB0189835E
:104CB0009A83AB83BC838D819E81AF81B88528EEBA
:104CC00033E040E050E0BC01CD010E94962CDA01B7
:104CD000C9019C01AD0189819A81AB81BC812817F2
:104CE00039074A075B07F8F48D819E81AF81B8854B
:104CF00028EE33E040E050E0BC01CD010E94962C4C
:104D0000DA01C9019C01AD0189819A81AB81BC8125
:104D10007C018D01E21AF30A040B150BED86FE8669
:104D20000F87188B04C01D861E861F86188A8D85E6
:104D30009E85AF85B88989839A83AB83BC8389813B
:104D40009A81AB81BC812BE131E0BC01CD01A9018D
:104D50000E94411D8D819E81AF81B88528EE33E090
:104D600040E050E0BC01CD010E94962CDC01CB015B
:104D70009C01AD0189859A85AB85BC85821B930B0F
:104D8000A40BB50B8093820190938301A0938401BF
:104D9000B093850189819A81AB81BC810097A1057F
:104DA000B105D9F41092870180917A018823A9F482
:104DB00082E080937A0189859A85AB85BC85805392
:104DC000984FAF4FBF4F8093880190938901A09374
:104DD0008A01B0938B010E94011491E0998B89891B
:104DE00061960FB6F894DEBF0FBECDBFCF91DF91B5
:104DF0001F910F91FF90EF900895DF93CF93CDB760
:104E0000DEB762970FB6F894DEBF0FBECDBF8983C1
:104E100089810E949716882309F0FDC189810E942B
:104E2000EC16882309F0F7C189810E941A1988239A
:104E300009F0F1C180917201282F30E03B832A8371
:104E40008A819B818330910509F40AC1EA81FB8143
:104E5000E430F1058CF42A813B812130310509F4DD
:104E60009DC08A819B81823091050CF0C8C0EA8187
:104E7000FB813097D1F0C6C12A813B8125303105B5
:104E800009F47DC18A819B81853091050CF45CC158
:104E9000EA81FB81E630F10509F48BC12A813B816F
:104EA0002730310509F49AC1ADC18981813419F4E3
:104EB0000E94F723A7C189818234A9F490917801D7
:104EC00081E089278093780180917801882341F4DB
:104ED0001092790180917A01813011F40E9462254B
:104EE0000E9432148FC18981843451F5109273016C
:104EF00087E091E09D838C83EFEFF0E0FF83EE830A
:104F0000F8E0F887EE81FF8100802E813F812F5FDE
:104F10003F4F3F832E83EC81FD8100822C813D81B8
:104F20002F5F3F4F3D832C833885315038878885EC
:104F3000882341F71092980184E00E94D32362C134
:104F40008981833209F05EC110927301EFE0F1E0D4
:104F5000FA87E9872FEF30E03C872B8738E03D87E1
:104F6000EB85FC8500802B853C852F5F3F4F3C8780
:104F70002B87E985FA85008229853A852F5F3F4F87
:104F80003A8729873D8531503D878D85882341F7B4
:104F90001092980185E00E94D32334C18981813425
:104FA00019F40E94F7232EC189818234A9F49091CB
:104FB000780181E0892780937801809178018823A6
:104FC00041F41092790180917A01813011F40E94AC
:104FD00062250E94321416C18981843409F012C1FD
:104FE00081E0809373018091170190911801909353
:104FF0001A018093190186E00E94D32303C189819D
:10500000813419F40E94F723FDC089818234C9F4E8
:1050100080918601882381F481E0809386010E943B
:105020000308DC01CB0180937E0190937F01A09364
:105030008001B093810102C0109286010E94321457
:10504000E1C08981843409F0DDC01092860110929C
:105050007B0110927C0110927D010E943214D2C01B
:105060008981813419F40E94F723CCC0898182346C
:1050700049F580918701882301F58BE191E00E9439
:10508000F81CDC01CB010097A105B105C1F081E05E
:10509000809387010E940308DC01CB018093820189
:1050A00090938301A0938401B093850180917A014C
:1050B000823029F40E94622502C0109287010E946A
:1050C0003214A0C08981843491F410928701109227
:1050D0001B0181E080931C0110921D0180917A01D7
:1050E000823011F40E9462250E9432148BC08981A3
:1050F000833209F087C083E080937301EEE1F1E031
:10510000FF87EE872BE131E0398B288B33E03A8B38
:10511000E889F9890080288939892F5F3F4F398BC9
:10512000288BEE85FF8500822E853F852F5F3F4FC0
:105130003F872E873A8931503A8B8A89882341F7F5
:1051400087E00E94D3235EC08981813419F40E94D4
:105150001D2458C08981843409F054C00E94171658
:10516000882319F40E9458144DC00E942F248823CC
:1051700019F00E941D2446C00E94321443C0898148
:10518000813419F40E941D243DC089818434D1F5F5
:105190000E941716882319F40E94581433C00E94E5
:1051A0007D24882319F00E941D242CC00E943214F3
:1051B00029C08981813419F40E941D2423C089816A
:1051C000843401F50E941716882319F40E9458149C
:1051D00019C00E94CB240E941D2414C089818134EF
:1051E00019F40E941D240EC08981843459F40E9450
:1051F0001716882319F40E94581404C00E94E5244D
:105200000E941D248981843431F480917A0188239D
:1052100011F00E94622562960FB6F894DEBF0FBEB1
:10522000CDBFCF91DF910895DF93CF9300D000D011
:10523000CDB7DEB780915D018A3461F480915E0163
:10524000813641F480915F018E3621F481E08093B4
:10525000040168C080915D01863421F482E080936E
:10526000040160C080915D018D3489F480915F01FB
:10527000823769F480915E01813619F443E04C83F2
:1052800002C055E05C836C81609304014BC0809147
:105290005D01813441F480915E01803721F484E026
:1052A000809304013FC080915D018A3441F4809174
:1052B0005F018E3621F486E08093040133C0809133
:1052C0005D018A3441F480915F018C3621F487E0DE
:1052D0008093040127C080915D01813441F4809165
:1052E0005E01853721F488E0809304011BC0809122
:1052F0005D01833521F489E08093040113C080911E
:105300005D018F3421F48AE0809304010BC0809109
:105310005D018E3421F48BE08093040103C08CE0A6
:105320008093040180916101803229F480916201AF
:1053300080538B8314C080916101882F90E09C0181
:10534000220F331FC901880F991F880F991F820FE1
:10535000931F982F80916201890F80518B838B81DD
:105360008093030180916501282F30E084E690E06E
:10537000AC01249FC001259F900D349F900D1124F6
:10538000AC0180916401882F90E0C0979C0188EE69
:1053900093E0BC01269FC001279F900D369F900D82
:1053A0001124480F591F80916601882F90E09C01BD
:1053B000220F331FC901880F991F880F991F820F71
:1053C000931F9A01280F391F80916701882F90E061
:1053D000820F931F805D94419A83898389819A818A
:1053E000909306018093050180915401882F90E0ED
:1053F0009C01220F331FC901880F991F880F991F25
:10540000820F931F982F80915501890F80518093AF
:10541000010180915701882F90E09C01220F331FDA
:10542000C901880F991F880F991F820F931F982F0A
:1054300080915801890F80518093000180915A0119
:10544000882F90E09C01220F331FC901880F991FFC
:10545000880F991F820F931F982F80915B01890FEE
:1054600080518093FF008091050190910601209169
:10547000040130910301622F432F0E94A71C8093E7
:1054800002010F900F900F900F90CF91DF91089530
:10549000DF93CF93CDB7DEB768970FB6F894DEBF32
:1054A0000FBECDBF19820E948B0F0E94A2130E94D3
:1054B000EC130E94910A0E94D2070E941429CE0187
:1054C00001960E94E60B882349F08981882331F0F8
:1054D0008FEF90E00E945C0B0E942A0CCE01029696
:1054E0000E949E0A882331F1CE0102960E94541C2C
:1054F000882301F18FEF90E09B878A87FE01329627
:10550000FD87EC87F8E0FE87EC85FD8500808C85C3
:105510009D8501969D878C87EA85FB8500828A851B
:105520009B8501969B878A879E8591509E87EE85F5
:10553000EE2351F787E091E0988B8F87EFEFF0E053
:10554000FA8BE98BF8E0FB8BE989FA89008089897D
:105550009A8901969A8B898BEF85F88900828F85CD
:1055600098890196988B8F879B8991509B8BEB89AB
:10557000EE2351F78FE091E09D8B8C8BEFEFF0E005
:10558000FF8BEE8BF8E0F88FEE89FF8900808E8923
:105590009F8901969F8B8E8BEC89FD8900828C8977
:1055A0009D8901969D8B8C8B988D9150988FE88D5D
:1055B000EE2351F780910101882F90E0019628E1B8
:1055C00030E0B9010E94822C809317018091000184
:1055D0008093180110928C0110928D0110928E010F
:1055E00010928F01109290011092910110929201ED
:1055F00010929301109294011092950110929601CD
:105600001092970110927A011092880110928901EC
:1056100010928A0110928B011092780110927901F8
:105620000E9419140E9432140E94722368960FB6C9
:10563000F894DEBF0FBECDBFCF91DF910895EF92FA
:10564000FF920F931F93DF93CF93CDB7DEB762978F
:105650000FB6F894DEBF0FBECDBF0E940308DC0179
:10566000CB018A839B83AC83BD830E94B113898362
:1056700080919901882301F180919A0190919B0179
:10568000A0919C01B0919D012A813B814C815D815B
:1056900079018A01E81AF90A0A0B1B0BD801C70124
:1056A000803D07E0900700E0A00700E0B00720F091
:1056B000109299010E9432148A819B81AC81BD8134
:1056C000BC01CD010E941726882311F00E943214DC
:1056D000809172010E943C14882381F18091940191
:1056E00090919501A0919601B09197012A813B81FB
:1056F0004C815D8179018A01E81AF90A0A0B1B0BBA
:10570000D801C701843F01E0900700E0A00700E056
:10571000B007A0F08A819B81AC81BD818093940108
:1057200090939501A0939601B093970190912301D6
:1057300081E08927809323010E9432148091900197
:1057400090919101A0919201B09193012A813B81A6
:105750004C815D8179018A01E81AF90A0A0B1B0B59
:10576000D801C701883E03E0900700E0A00700E0F1
:10577000B00708F43EC08A819B81AC81BD818093D3
:10578000900190939101A0939201B0939301CE0167
:1057900006960E949E0A882361F1CE0106960E9419
:1057A000541C882331F18FEF90E09F878E87FE0194
:1057B0003696F98BE88BF8E0FA8BE889F989008056
:1057C000088919890F5F1F4F198B088BEE85FF859C
:1057D00000820E851F850F5F1F4F1F870E871A8956
:1057E00011501A8B2A89222341F70E941C250E94FE
:1057F00032148A819B81AC81BD81BC01CD010E94A4
:105800007525882311F00E94321480917A01882333
:1058100009F18091880190918901A0918A01B0914C
:105820008B010097A105B105A9F020918801309165
:10583000890140918A0150918B018A819B81AC81C1
:10584000BD8182179307A407B50720F00E94622547
:105850000E9432148981882319F089810E94FD26D3
:105860009091210180917201981721F48091220179
:10587000882331F080917201809321010E9472236C
:1058800062960FB6F894DEBF0FBECDBFCF91DF9109
:105890001F910F91FF90EF900895DF93CF93CDB7B5
:1058A000DEB70E94482A78940E941F2BFDCF629F8A
:1058B000D001739FF001829FE00DF11D649FE00D08
:1058C000F11D929FF00D839FF00D749FF00D659F69
:1058D000F00D9927729FB00DE11DF91F639FB00D68
:1058E000E11DF91FBD01CF0111240895991B79E035
:1058F00004C0991F961708F0961B881F7A95C9F760
:1059000080950895AA1BBB1B51E107C0AA1FBB1FAE
:10591000A617B70710F0A61BB70B881F991F5A953B
:10592000A9F780959095BC01CD010895A1E21A2EAA
:10593000AA1BBB1BFD010DC0AA1FBB1FEE1FFF1F33
:10594000A217B307E407F50720F0A21BB30BE40B83
:10595000F50B661F771F881F991F1A9469F76095CA
:105960007095809590959B01AC01BD01CF01089584
:105970002F923F924F925F926F927F928F929F925F
:10598000AF92BF92CF92DF92EF92FF920F931F934D
:10599000CF93DF93CDB7DEB7CA1BDB0B0FB6F894FE
:1059A000DEBF0FBECDBF09942A88398848885F843E
:1059B0006E847D848C849B84AA84B984C884DF80AF
:1059C000EE80FD800C811B81AA81B981CE0FD11D93
:1059D0000FB6F894DEBF0FBECDBFED010895F89469
:0259E000FFCFF7
:1059E20054696D653A00454E41424C454400444974
:1059F2005341424C45440052554E4E494E47005386
:105A0200544F5050454400434F554E54444F574E07
:105A12002020233D534554005254432045525220E6
:105A2200443D524554525900494E56414C49442036
:105A320056414C554500414C41524D2020202020DA
:105A4200443D53415645004544495420434F554E29
:105A52005444574E005345542054494D4520204448
:105A62003D5341564500534554204441544520205E
:105A7200443D534156450000000000000000000074
:105A82000000010101EA07000000010101EA07002C
:105A92000000010101EA07061E061E0001000001C6
:105AA20000FF0101040506070001020337383941EE
:105AB20034353642313233432A3023441F1C1F1EF1
:105AC2001F1E1F1F1E1F1E1F0003020500030501CC
:105AD2000406020431343A31363A313900536570E2
